{
  "_format": "hh3-artifact-1",
  "contractName": "GhostVault",
  "sourceName": "contracts/GhostVault.sol",
  "abi": [
    {
      "inputs": [
        {
          "internalType": "address",
          "name": "treasuryWallet",
          "type": "address"
        },
        {
          "internalType": "uint256",
          "name": "initialMaxTVL",
          "type": "uint256"
        },
        {
          "internalType": "uint256",
          "name": "fixedCreditPriceWei",
          "type": "uint256"
        }
      ],
      "stateMutability": "nonpayable",
      "type": "constructor"
    },
    {
      "inputs": [],
      "name": "AllocationExceedsBacking",
      "type": "error"
    },
    {
      "inputs": [],
      "name": "AllocationsPaused",
      "type": "error"
    },
    {
      "inputs": [],
      "name": "ArrayLengthMismatch",
      "type": "error"
    },
    {
      "inputs": [],
      "name": "DepositNotExactCreditMultiple",
      "type": "error"
    },
    {
      "inputs": [],
      "name": "DepositsPaused",
      "type": "error"
    },
    {
      "inputs": [],
      "name": "GlobalCapReached",
      "type": "error"
    },
    {
      "inputs": [],
      "name": "InvalidAddress",
      "type": "error"
    },
    {
      "inputs": [],
      "name": "InvalidAmount",
      "type": "error"
    },
    {
      "inputs": [],
      "name": "InvalidFeeAmount",
      "type": "error"
    },
    {
      "inputs": [],
      "name": "InvalidSettlementId",
      "type": "error"
    },
    {
      "inputs": [],
      "name": "NoBalance",
      "type": "error"
    },
    {
      "inputs": [],
      "name": "NoExcessBalance",
      "type": "error"
    },
    {
      "inputs": [],
      "name": "NoFees",
      "type": "error"
    },
    {
      "inputs": [
        {
          "internalType": "address",
          "name": "owner",
          "type": "address"
        }
      ],
      "name": "OwnableInvalidOwner",
      "type": "error"
    },
    {
      "inputs": [
        {
          "internalType": "address",
          "name": "account",
          "type": "address"
        }
      ],
      "name": "OwnableUnauthorizedAccount",
      "type": "error"
    },
    {
      "inputs": [],
      "name": "ReentrancyGuardReentrantCall",
      "type": "error"
    },
    {
      "inputs": [],
      "name": "SettlementAlreadyProcessed",
      "type": "error"
    },
    {
      "inputs": [],
      "name": "TransferFailed",
      "type": "error"
    },
    {
      "inputs": [],
      "name": "UnauthorizedOperator",
      "type": "error"
    },
    {
      "anonymous": false,
      "inputs": [
        {
          "indexed": false,
          "internalType": "bool",
          "name": "paused",
          "type": "bool"
        }
      ],
      "name": "AllocationsPauseUpdated",
      "type": "event"
    },
    {
      "anonymous": false,
      "inputs": [
        {
          "indexed": true,
          "internalType": "address",
          "name": "payer",
          "type": "address"
        },
        {
          "indexed": false,
          "internalType": "uint256",
          "name": "amount",
          "type": "uint256"
        },
        {
          "indexed": false,
          "internalType": "uint256",
          "name": "creditsPurchased",
          "type": "uint256"
        }
      ],
      "name": "Deposited",
      "type": "event"
    },
    {
      "anonymous": false,
      "inputs": [
        {
          "indexed": false,
          "internalType": "bool",
          "name": "paused",
          "type": "bool"
        }
      ],
      "name": "DepositsPauseUpdated",
      "type": "event"
    },
    {
      "anonymous": false,
      "inputs": [
        {
          "indexed": true,
          "internalType": "address",
          "name": "recipient",
          "type": "address"
        },
        {
          "indexed": false,
          "internalType": "uint256",
          "name": "amount",
          "type": "uint256"
        }
      ],
      "name": "ExcessSwept",
      "type": "event"
    },
    {
      "anonymous": false,
      "inputs": [
        {
          "indexed": true,
          "internalType": "address",
          "name": "recipient",
          "type": "address"
        },
        {
          "indexed": false,
          "internalType": "uint256",
          "name": "amount",
          "type": "uint256"
        }
      ],
      "name": "FeesClaimed",
      "type": "event"
    },
    {
      "anonymous": false,
      "inputs": [
        {
          "indexed": false,
          "internalType": "uint256",
          "name": "previousCap",
          "type": "uint256"
        },
        {
          "indexed": false,
          "internalType": "uint256",
          "name": "newCap",
          "type": "uint256"
        }
      ],
      "name": "MaxTVLUpdated",
      "type": "event"
    },
    {
      "anonymous": false,
      "inputs": [
        {
          "indexed": true,
          "internalType": "address",
          "name": "merchant",
          "type": "address"
        },
        {
          "indexed": true,
          "internalType": "bytes32",
          "name": "settlementId",
          "type": "bytes32"
        },
        {
          "indexed": false,
          "internalType": "uint256",
          "name": "grossAmount",
          "type": "uint256"
        },
        {
          "indexed": false,
          "internalType": "uint256",
          "name": "feeAmount",
          "type": "uint256"
        },
        {
          "indexed": false,
          "internalType": "uint256",
          "name": "netAmount",
          "type": "uint256"
        }
      ],
      "name": "MerchantEarningsAllocated",
      "type": "event"
    },
    {
      "anonymous": false,
      "inputs": [
        {
          "indexed": true,
          "internalType": "address",
          "name": "previousOwner",
          "type": "address"
        },
        {
          "indexed": true,
          "internalType": "address",
          "name": "newOwner",
          "type": "address"
        }
      ],
      "name": "OwnershipTransferred",
      "type": "event"
    },
    {
      "anonymous": false,
      "inputs": [
        {
          "indexed": true,
          "internalType": "address",
          "name": "operator",
          "type": "address"
        },
        {
          "indexed": false,
          "internalType": "bool",
          "name": "allowed",
          "type": "bool"
        }
      ],
      "name": "SettlementOperatorUpdated",
      "type": "event"
    },
    {
      "anonymous": false,
      "inputs": [
        {
          "indexed": true,
          "internalType": "address",
          "name": "previousTreasury",
          "type": "address"
        },
        {
          "indexed": true,
          "internalType": "address",
          "name": "newTreasury",
          "type": "address"
        }
      ],
      "name": "TreasuryUpdated",
      "type": "event"
    },
    {
      "anonymous": false,
      "inputs": [
        {
          "indexed": true,
          "internalType": "address",
          "name": "merchant",
          "type": "address"
        },
        {
          "indexed": true,
          "internalType": "address",
          "name": "recipient",
          "type": "address"
        },
        {
          "indexed": false,
          "internalType": "uint256",
          "name": "amount",
          "type": "uint256"
        }
      ],
      "name": "Withdrawn",
      "type": "event"
    },
    {
      "inputs": [],
      "name": "accruedFees",
      "outputs": [
        {
          "internalType": "uint256",
          "name": "",
          "type": "uint256"
        }
      ],
      "stateMutability": "view",
      "type": "function"
    },
    {
      "inputs": [
        {
          "internalType": "address",
          "name": "merchant",
          "type": "address"
        },
        {
          "internalType": "uint256",
          "name": "grossAmount",
          "type": "uint256"
        },
        {
          "internalType": "uint256",
          "name": "feeAmount",
          "type": "uint256"
        },
        {
          "internalType": "bytes32",
          "name": "settlementId",
          "type": "bytes32"
        }
      ],
      "name": "allocateMerchantEarnings",
      "outputs": [],
      "stateMutability": "nonpayable",
      "type": "function"
    },
    {
      "inputs": [
        {
          "internalType": "address[]",
          "name": "merchants",
          "type": "address[]"
        },
        {
          "internalType": "uint256[]",
          "name": "grossAmounts",
          "type": "uint256[]"
        },
        {
          "internalType": "uint256[]",
          "name": "feeAmounts",
          "type": "uint256[]"
        },
        {
          "internalType": "bytes32[]",
          "name": "settlementIds",
          "type": "bytes32[]"
        }
      ],
      "name": "allocateMerchantEarningsBatch",
      "outputs": [],
      "stateMutability": "nonpayable",
      "type": "function"
    },
    {
      "inputs": [],
      "name": "allocationsPaused",
      "outputs": [
        {
          "internalType": "bool",
          "name": "",
          "type": "bool"
        }
      ],
      "stateMutability": "view",
      "type": "function"
    },
    {
      "inputs": [
        {
          "internalType": "address",
          "name": "",
          "type": "address"
        }
      ],
      "name": "balances",
      "outputs": [
        {
          "internalType": "uint256",
          "name": "",
          "type": "uint256"
        }
      ],
      "stateMutability": "view",
      "type": "function"
    },
    {
      "inputs": [
        {
          "internalType": "address",
          "name": "recipient",
          "type": "address"
        }
      ],
      "name": "claimFees",
      "outputs": [],
      "stateMutability": "nonpayable",
      "type": "function"
    },
    {
      "inputs": [],
      "name": "claimFees",
      "outputs": [],
      "stateMutability": "nonpayable",
      "type": "function"
    },
    {
      "inputs": [],
      "name": "creditPriceWei",
      "outputs": [
        {
          "internalType": "uint256",
          "name": "",
          "type": "uint256"
        }
      ],
      "stateMutability": "view",
      "type": "function"
    },
    {
      "inputs": [],
      "name": "depositCredit",
      "outputs": [],
      "stateMutability": "payable",
      "type": "function"
    },
    {
      "inputs": [],
      "name": "depositsPaused",
      "outputs": [
        {
          "internalType": "bool",
          "name": "",
          "type": "bool"
        }
      ],
      "stateMutability": "view",
      "type": "function"
    },
    {
      "inputs": [],
      "name": "maxTVL",
      "outputs": [
        {
          "internalType": "uint256",
          "name": "",
          "type": "uint256"
        }
      ],
      "stateMutability": "view",
      "type": "function"
    },
    {
      "inputs": [
        {
          "internalType": "address",
          "name": "merchant",
          "type": "address"
        }
      ],
      "name": "merchantBalances",
      "outputs": [
        {
          "internalType": "uint256",
          "name": "",
          "type": "uint256"
        }
      ],
      "stateMutability": "view",
      "type": "function"
    },
    {
      "inputs": [],
      "name": "owner",
      "outputs": [
        {
          "internalType": "address",
          "name": "",
          "type": "address"
        }
      ],
      "stateMutability": "view",
      "type": "function"
    },
    {
      "inputs": [
        {
          "internalType": "bool",
          "name": "paused",
          "type": "bool"
        }
      ],
      "name": "pauseAllocations",
      "outputs": [],
      "stateMutability": "nonpayable",
      "type": "function"
    },
    {
      "inputs": [
        {
          "internalType": "bool",
          "name": "paused",
          "type": "bool"
        }
      ],
      "name": "pauseDeposits",
      "outputs": [],
      "stateMutability": "nonpayable",
      "type": "function"
    },
    {
      "inputs": [
        {
          "internalType": "bytes32",
          "name": "",
          "type": "bytes32"
        }
      ],
      "name": "processedSettlementIds",
      "outputs": [
        {
          "internalType": "bool",
          "name": "",
          "type": "bool"
        }
      ],
      "stateMutability": "view",
      "type": "function"
    },
    {
      "inputs": [],
      "name": "renounceOwnership",
      "outputs": [],
      "stateMutability": "nonpayable",
      "type": "function"
    },
    {
      "inputs": [
        {
          "internalType": "uint256",
          "name": "newCap",
          "type": "uint256"
        }
      ],
      "name": "setMaxTVL",
      "outputs": [],
      "stateMutability": "nonpayable",
      "type": "function"
    },
    {
      "inputs": [
        {
          "internalType": "address",
          "name": "operator",
          "type": "address"
        },
        {
          "internalType": "bool",
          "name": "allowed",
          "type": "bool"
        }
      ],
      "name": "setSettlementOperator",
      "outputs": [],
      "stateMutability": "nonpayable",
      "type": "function"
    },
    {
      "inputs": [
        {
          "internalType": "address",
          "name": "newTreasury",
          "type": "address"
        }
      ],
      "name": "setTreasury",
      "outputs": [],
      "stateMutability": "nonpayable",
      "type": "function"
    },
    {
      "inputs": [
        {
          "internalType": "address",
          "name": "",
          "type": "address"
        }
      ],
      "name": "settlementOperators",
      "outputs": [
        {
          "internalType": "bool",
          "name": "",
          "type": "bool"
        }
      ],
      "stateMutability": "view",
      "type": "function"
    },
    {
      "inputs": [
        {
          "internalType": "address",
          "name": "recipient",
          "type": "address"
        }
      ],
      "name": "sweepExcess",
      "outputs": [],
      "stateMutability": "nonpayable",
      "type": "function"
    },
    {
      "inputs": [],
      "name": "totalCreditBacking",
      "outputs": [
        {
          "internalType": "uint256",
          "name": "",
          "type": "uint256"
        }
      ],
      "stateMutability": "view",
      "type": "function"
    },
    {
      "inputs": [],
      "name": "totalLiability",
      "outputs": [
        {
          "internalType": "uint256",
          "name": "",
          "type": "uint256"
        }
      ],
      "stateMutability": "view",
      "type": "function"
    },
    {
      "inputs": [],
      "name": "totalMerchantLiability",
      "outputs": [
        {
          "internalType": "uint256",
          "name": "",
          "type": "uint256"
        }
      ],
      "stateMutability": "view",
      "type": "function"
    },
    {
      "inputs": [
        {
          "internalType": "address",
          "name": "newOwner",
          "type": "address"
        }
      ],
      "name": "transferOwnership",
      "outputs": [],
      "stateMutability": "nonpayable",
      "type": "function"
    },
    {
      "inputs": [],
      "name": "treasury",
      "outputs": [
        {
          "internalType": "address",
          "name": "",
          "type": "address"
        }
      ],
      "stateMutability": "view",
      "type": "function"
    },
    {
      "inputs": [],
      "name": "withdraw",
      "outputs": [],
      "stateMutability": "nonpayable",
      "type": "function"
    },
    {
      "inputs": [
        {
          "internalType": "address",
          "name": "recipient",
          "type": "address"
        }
      ],
      "name": "withdrawTo",
      "outputs": [],
      "stateMutability": "nonpayable",
      "type": "function"
    }
  ],
  "bytecode": "0x60a060405234801561000f575f5ffd5b50604051612aba380380612aba8339818101604052810190610031919061030b565b335f73ffffffffffffffffffffffffffffffffffffffff168173ffffffffffffffffffffffffffffffffffffffff16036100a2575f6040517f1e4fbdf7000000000000000000000000000000000000000000000000000000008152600401610099919061036a565b60405180910390fd5b6100b1816101b960201b60201c565b50600180819055505f73ffffffffffffffffffffffffffffffffffffffff168373ffffffffffffffffffffffffffffffffffffffff160361011e576040517fe6c4247b00000000000000000000000000000000000000000000000000000000815260040160405180910390fd5b5f82148061012b57505f81145b15610162576040517f2c5211c600000000000000000000000000000000000000000000000000000000815260040160405180910390fd5b8260065f6101000a81548173ffffffffffffffffffffffffffffffffffffffff021916908373ffffffffffffffffffffffffffffffffffffffff160217905550816002819055508060808181525050505050610383565b5f5f5f9054906101000a900473ffffffffffffffffffffffffffffffffffffffff169050815f5f6101000a81548173ffffffffffffffffffffffffffffffffffffffff021916908373ffffffffffffffffffffffffffffffffffffffff1602179055508173ffffffffffffffffffffffffffffffffffffffff168173ffffffffffffffffffffffffffffffffffffffff167f8be0079c531659141344cd1fd0a4f28419497f9722a3daafe3b4186f6b6457e060405160405180910390a35050565b5f5ffd5b5f73ffffffffffffffffffffffffffffffffffffffff82169050919050565b5f6102a78261027e565b9050919050565b6102b78161029d565b81146102c1575f5ffd5b50565b5f815190506102d2816102ae565b92915050565b5f819050919050565b6102ea816102d8565b81146102f4575f5ffd5b50565b5f81519050610305816102e1565b92915050565b5f5f5f606084860312156103225761032161027a565b5b5f61032f868287016102c4565b9350506020610340868287016102f7565b9250506040610351868287016102f7565b9150509250925092565b6103648161029d565b82525050565b5f60208201905061037d5f83018461035b565b92915050565b6080516127116103a95f395f818161072a0152818161081a015261088f01526127115ff3fe6080604052600436106101c1575f3560e01c806372b0d90c116100f6578063ad2f9ee111610094578063f0f4426011610063578063f0f44260146105bd578063f21748ad146105e5578063f2fde38b1461060d578063f9723f4d14610635576101c1565b8063ad2f9ee11461052d578063d2045f6d14610555578063d294f0931461057f578063ebeeabbd14610595576101c1565b80637f3f1601116100d05780637f3f16011461044f578063889dbbb51461048b578063899a43fc146104c75780638da5cb5b14610503576101c1565b806372b0d90c146103d7578063738b62e5146103ff5780637b46b6dd14610427576101c1565b8063507eebdd11610163578063682c20581161013d578063682c20581461034557806368b68bd51461036f5780636aa08cb214610397578063715018a6146103c1576101c1565b8063507eebdd146102c757806360da3e83146102f157806361d027b31461031b576101c1565b80633604610a1161019f5780633604610a146102535780633ccfd60b1461025d57806345873b78146102735780634a2fd7541461029d576101c1565b80630fc29349146101c557806315a0ea6a146101ef57806327e235e314610217575b5f5ffd5b3480156101d0575f5ffd5b506101d961065d565b6040516101e6919061202a565b60405180910390f35b3480156101fa575f5ffd5b50610215600480360381019061021091906120a5565b610666565b005b348015610222575f5ffd5b5061023d600480360381019061023891906120a5565b61068a565b60405161024a919061202a565b60405180910390f35b61025b61069f565b005b348015610268575f5ffd5b50610271610865565b005b34801561027e575f5ffd5b50610287610881565b604051610294919061202a565b60405180910390f35b3480156102a8575f5ffd5b506102b1610887565b6040516102be919061202a565b60405180910390f35b3480156102d2575f5ffd5b506102db61088d565b6040516102e8919061202a565b60405180910390f35b3480156102fc575f5ffd5b506103056108b1565b60405161031291906120ea565b60405180910390f35b348015610326575f5ffd5b5061032f6108c4565b60405161033c9190612112565b60405180910390f35b348015610350575f5ffd5b506103596108e9565b604051610366919061202a565b60405180910390f35b34801561037a575f5ffd5b50610395600480360381019061039091906120a5565b6108ef565b005b3480156103a2575f5ffd5b506103ab610aaf565b6040516103b891906120ea565b60405180910390f35b3480156103cc575f5ffd5b506103d5610ac2565b005b3480156103e2575f5ffd5b506103fd60048036038101906103f891906120a5565b610ad5565b005b34801561040a575f5ffd5b5061042560048036038101906104209190612155565b610af2565b005b348015610432575f5ffd5b5061044d6004803603810190610448919061228b565b610b4e565b005b34801561045a575f5ffd5b50610475600480360381019061047091906120a5565b610d7c565b604051610482919061202a565b60405180910390f35b348015610496575f5ffd5b506104b160048036038101906104ac91906123a2565b610dc2565b6040516104be91906120ea565b60405180910390f35b3480156104d2575f5ffd5b506104ed60048036038101906104e891906120a5565b610ddf565b6040516104fa91906120ea565b60405180910390f35b34801561050e575f5ffd5b50610517610dfc565b6040516105249190612112565b60405180910390f35b348015610538575f5ffd5b50610553600480360381019061054e91906123f7565b610e23565b005b348015610560575f5ffd5b50610569611133565b604051610576919061202a565b60405180910390f35b34801561058a575f5ffd5b50610593611139565b005b3480156105a0575f5ffd5b506105bb60048036038101906105b6919061245b565b61117d565b005b3480156105c8575f5ffd5b506105e360048036038101906105de91906120a5565b611290565b005b3480156105f0575f5ffd5b5061060b60048036038101906106069190612499565b6113c0565b005b348015610618575f5ffd5b50610633600480360381019061062e91906120a5565b61144e565b005b348015610640575f5ffd5b5061065b60048036038101906106569190612155565b6114d2565b005b5f600454905090565b61066e61152e565b6106766115b5565b61067f816115fb565b6106876117b0565b50565b6007602052805f5260405f205f915090505481565b6106a76115b5565b600660149054906101000a900460ff16156106ee576040517fdeeb694300000000000000000000000000000000000000000000000000000000815260040160405180910390fd5b5f3403610727576040517f2c5211c600000000000000000000000000000000000000000000000000000000815260040160405180910390fd5b5f7f00000000000000000000000000000000000000000000000000000000000000003461075491906124f1565b1461078b576040517f5023752400000000000000000000000000000000000000000000000000000000815260040160405180910390fd5b5f3460035461079a919061254e565b90506002548111156107d8576040517fb599c5db00000000000000000000000000000000000000000000000000000000815260040160405180910390fd5b806003819055503373ffffffffffffffffffffffffffffffffffffffff167f73a19dd210f1a7f902193214c0ee91dd35ee5b4d920cba8d519eca65a7b488ca347f0000000000000000000000000000000000000000000000000000000000000000346108449190612581565b6040516108529291906125b1565b60405180910390a2506108636117b0565b565b61086d6115b5565b61087733336117b9565b61087f6117b0565b565b60045481565b60035481565b7f000000000000000000000000000000000000000000000000000000000000000081565b600660149054906101000a900460ff1681565b60065f9054906101000a900473ffffffffffffffffffffffffffffffffffffffff1681565b60055481565b6108f761152e565b6108ff6115b5565b5f73ffffffffffffffffffffffffffffffffffffffff168173ffffffffffffffffffffffffffffffffffffffff1603610964576040517fe6c4247b00000000000000000000000000000000000000000000000000000000815260040160405180910390fd5b5f47905060035481116109a3576040517ff3e3d36300000000000000000000000000000000000000000000000000000000815260040160405180910390fd5b5f600354826109b291906125d8565b90505f8373ffffffffffffffffffffffffffffffffffffffff16826040516109d990612638565b5f6040518083038185875af1925050503d805f8114610a13576040519150601f19603f3d011682016040523d82523d5f602084013e610a18565b606091505b5050905080610a53576040517f90b8ec1800000000000000000000000000000000000000000000000000000000815260040160405180910390fd5b8373ffffffffffffffffffffffffffffffffffffffff167fc8e1820fc7cdb24fa7e84f38f2da19d439f9c334b42d22ca3743f4a7c7eaa20e83604051610a99919061202a565b60405180910390a2505050610aac6117b0565b50565b600660159054906101000a900460ff1681565b610aca61152e565b610ad35f611a14565b565b610add6115b5565b610ae733826117b9565b610aef6117b0565b50565b610afa61152e565b80600660146101000a81548160ff0219169083151502179055507fba726e568e1b6d4e82e34d8555d04476430e9c4511935dd8c487e689c89b377081604051610b4391906120ea565b60405180910390a150565b610b56610dfc565b73ffffffffffffffffffffffffffffffffffffffff163373ffffffffffffffffffffffffffffffffffffffff1614158015610bd8575060095f3373ffffffffffffffffffffffffffffffffffffffff1673ffffffffffffffffffffffffffffffffffffffff1681526020019081526020015f205f9054906101000a900460ff16155b15610c0f576040517f4d739bfe00000000000000000000000000000000000000000000000000000000815260040160405180910390fd5b610c176115b5565b600660159054906101000a900460ff1615610c5e576040517f2ff7a67900000000000000000000000000000000000000000000000000000000815260040160405180910390fd5b610d6a8888808060200260200160405190810160405280939291908181526020018383602002808284375f81840152601f19601f820116905080830192505050505050508787808060200260200160405190810160405280939291908181526020018383602002808284375f81840152601f19601f820116905080830192505050505050508686808060200260200160405190810160405280939291908181526020018383602002808284375f81840152601f19601f820116905080830192505050505050508585808060200260200160405190810160405280939291908181526020018383602002808284375f81840152601f19601f82011690508083019250505050505050611ad5565b610d726117b0565b5050505050505050565b5f60075f8373ffffffffffffffffffffffffffffffffffffffff1673ffffffffffffffffffffffffffffffffffffffff1681526020019081526020015f20549050919050565b6008602052805f5260405f205f915054906101000a900460ff1681565b6009602052805f5260405f205f915054906101000a900460ff1681565b5f5f5f9054906101000a900473ffffffffffffffffffffffffffffffffffffffff16905090565b610e2b610dfc565b73ffffffffffffffffffffffffffffffffffffffff163373ffffffffffffffffffffffffffffffffffffffff1614158015610ead575060095f3373ffffffffffffffffffffffffffffffffffffffff1673ffffffffffffffffffffffffffffffffffffffff1681526020019081526020015f205f9054906101000a900460ff16155b15610ee4576040517f4d739bfe00000000000000000000000000000000000000000000000000000000815260040160405180910390fd5b610eec6115b5565b600660159054906101000a900460ff1615610f33576040517f2ff7a67900000000000000000000000000000000000000000000000000000000815260040160405180910390fd5b5f600167ffffffffffffffff811115610f4f57610f4e61264c565b5b604051908082528060200260200182016040528015610f7d5781602001602082028036833780820191505090505b50905084815f81518110610f9457610f93612679565b5b602002602001019073ffffffffffffffffffffffffffffffffffffffff16908173ffffffffffffffffffffffffffffffffffffffff16815250505f600167ffffffffffffffff811115610fea57610fe961264c565b5b6040519080825280602002602001820160405280156110185781602001602082028036833780820191505090505b50905084815f8151811061102f5761102e612679565b5b6020026020010181815250505f600167ffffffffffffffff8111156110575761105661264c565b5b6040519080825280602002602001820160405280156110855781602001602082028036833780820191505090505b50905084815f8151811061109c5761109b612679565b5b6020026020010181815250505f600167ffffffffffffffff8111156110c4576110c361264c565b5b6040519080825280602002602001820160405280156110f25781602001602082028036833780820191505090505b50905084815f8151811061110957611108612679565b5b60200260200101818152505061112184848484611ad5565b5050505061112d6117b0565b50505050565b60025481565b61114161152e565b6111496115b5565b61117360065f9054906101000a900473ffffffffffffffffffffffffffffffffffffffff166115fb565b61117b6117b0565b565b61118561152e565b5f73ffffffffffffffffffffffffffffffffffffffff168273ffffffffffffffffffffffffffffffffffffffff16036111ea576040517fe6c4247b00000000000000000000000000000000000000000000000000000000815260040160405180910390fd5b8060095f8473ffffffffffffffffffffffffffffffffffffffff1673ffffffffffffffffffffffffffffffffffffffff1681526020019081526020015f205f6101000a81548160ff0219169083151502179055508173ffffffffffffffffffffffffffffffffffffffff167f243e4aa1887f6efdc8897e10ee73679c6e965f736f71691f35036f8a592035cc8260405161128491906120ea565b60405180910390a25050565b61129861152e565b5f73ffffffffffffffffffffffffffffffffffffffff168173ffffffffffffffffffffffffffffffffffffffff16036112fd576040517fe6c4247b00000000000000000000000000000000000000000000000000000000815260040160405180910390fd5b5f60065f9054906101000a900473ffffffffffffffffffffffffffffffffffffffff1690508160065f6101000a81548173ffffffffffffffffffffffffffffffffffffffff021916908373ffffffffffffffffffffffffffffffffffffffff1602179055508173ffffffffffffffffffffffffffffffffffffffff168173ffffffffffffffffffffffffffffffffffffffff167f4ab5be82436d353e61ca18726e984e561f5c1cc7c6d38b29d2553c790434705a60405160405180910390a35050565b6113c861152e565b600354811015611404576040517f2c5211c600000000000000000000000000000000000000000000000000000000815260040160405180910390fd5b5f6002549050816002819055507f965c5642286e6b7251ac58e1f483b260b670c4c6a9c155261ac662bc74ba35f181836040516114429291906125b1565b60405180910390a15050565b61145661152e565b5f73ffffffffffffffffffffffffffffffffffffffff168173ffffffffffffffffffffffffffffffffffffffff16036114c6575f6040517f1e4fbdf70000000000000000000000000000000000000000000000000000000081526004016114bd9190612112565b60405180910390fd5b6114cf81611a14565b50565b6114da61152e565b80600660156101000a81548160ff0219169083151502179055507f8529eb92e439314c3e743db0830ff756559a010042b74290130953271ee7107d8160405161152391906120ea565b60405180910390a150565b61153661200b565b73ffffffffffffffffffffffffffffffffffffffff16611554610dfc565b73ffffffffffffffffffffffffffffffffffffffff16146115b35761157761200b565b6040517f118cdaa70000000000000000000000000000000000000000000000000000000081526004016115aa9190612112565b60405180910390fd5b565b6002600154036115f1576040517f3ee5aeb500000000000000000000000000000000000000000000000000000000815260040160405180910390fd5b6002600181905550565b5f73ffffffffffffffffffffffffffffffffffffffff168173ffffffffffffffffffffffffffffffffffffffff1603611660576040517fe6c4247b00000000000000000000000000000000000000000000000000000000815260040160405180910390fd5b5f60055490505f810361169f576040517f7f7d9be000000000000000000000000000000000000000000000000000000000815260040160405180910390fd5b5f6005819055508060035f8282546116b791906125d8565b925050819055505f8273ffffffffffffffffffffffffffffffffffffffff16826040516116e390612638565b5f6040518083038185875af1925050503d805f811461171d576040519150601f19603f3d011682016040523d82523d5f602084013e611722565b606091505b505090508061175d576040517f90b8ec1800000000000000000000000000000000000000000000000000000000815260040160405180910390fd5b8273ffffffffffffffffffffffffffffffffffffffff167f9493e5bbe4e8e0ac67284469a2d677403d0378a85a59e341d3abc433d0d9a209836040516117a3919061202a565b60405180910390a2505050565b60018081905550565b5f73ffffffffffffffffffffffffffffffffffffffff168173ffffffffffffffffffffffffffffffffffffffff160361181e576040517fe6c4247b00000000000000000000000000000000000000000000000000000000815260040160405180910390fd5b5f60075f8473ffffffffffffffffffffffffffffffffffffffff1673ffffffffffffffffffffffffffffffffffffffff1681526020019081526020015f205490505f8103611898576040517fc2caa2a600000000000000000000000000000000000000000000000000000000815260040160405180910390fd5b5f60075f8573ffffffffffffffffffffffffffffffffffffffff1673ffffffffffffffffffffffffffffffffffffffff1681526020019081526020015f20819055508060045f8282546118eb91906125d8565b925050819055508060035f82825461190391906125d8565b925050819055505f8273ffffffffffffffffffffffffffffffffffffffff168260405161192f90612638565b5f6040518083038185875af1925050503d805f8114611969576040519150601f19603f3d011682016040523d82523d5f602084013e61196e565b606091505b50509050806119a9576040517f90b8ec1800000000000000000000000000000000000000000000000000000000815260040160405180910390fd5b8273ffffffffffffffffffffffffffffffffffffffff168473ffffffffffffffffffffffffffffffffffffffff167fd1c19fbcd4551a5edfb66d43d2e337c04837afda3482b42bdf569a8fccdae5fb84604051611a06919061202a565b60405180910390a350505050565b5f5f5f9054906101000a900473ffffffffffffffffffffffffffffffffffffffff169050815f5f6101000a81548173ffffffffffffffffffffffffffffffffffffffff021916908373ffffffffffffffffffffffffffffffffffffffff1602179055508173ffffffffffffffffffffffffffffffffffffffff168173ffffffffffffffffffffffffffffffffffffffff167f8be0079c531659141344cd1fd0a4f28419497f9722a3daafe3b4186f6b6457e060405160405180910390a35050565b5f845190505f811480611ae9575083518114155b80611af5575082518114155b80611b01575081518114155b15611b38576040517fa24a13a600000000000000000000000000000000000000000000000000000000815260040160405180910390fd5b5f5f90505f5f90505f5f90505b83811015611dd3575f888281518110611b6157611b60612679565b5b602002602001015190505f888381518110611b7f57611b7e612679565b5b602002602001015190505f888481518110611b9d57611b9c612679565b5b602002602001015190505f888581518110611bbb57611bba612679565b5b602002602001015190505f73ffffffffffffffffffffffffffffffffffffffff168473ffffffffffffffffffffffffffffffffffffffff1603611c2a576040517fe6c4247b00000000000000000000000000000000000000000000000000000000815260040160405180910390fd5b5f8303611c63576040517f2c5211c600000000000000000000000000000000000000000000000000000000815260040160405180910390fd5b82821115611c9d576040517f52338c8000000000000000000000000000000000000000000000000000000000815260040160405180910390fd5b5f5f1b8103611cd8576040517f0a47c4c600000000000000000000000000000000000000000000000000000000815260040160405180910390fd5b60085f8281526020019081526020015f205f9054906101000a900460ff1615611d2d576040517f3f18373a00000000000000000000000000000000000000000000000000000000815260040160405180910390fd5b5f5f90505b85811015611d9a57818a8281518110611d4e57611d4d612679565b5b602002602001015103611d8d576040517f3f18373a00000000000000000000000000000000000000000000000000000000815260040160405180910390fd5b8080600101915050611d32565b508183611da791906125d8565b87611db2919061254e565b96508186611dc0919061254e565b9550505050508080600101915050611b45565b505f82600454611de3919061254e565b90505f82600554611df4919061254e565b90506003548183611e05919061254e565b1115611e3d576040517f289d10e800000000000000000000000000000000000000000000000000000000815260040160405180910390fd5b81600481905550806005819055505f5f90505b85811015611fff575f878281518110611e6c57611e6b612679565b5b60200260200101519050600160085f8381526020019081526020015f205f6101000a81548160ff0219169083151502179055505f898381518110611eb357611eb2612679565b5b60200260200101518b8481518110611ece57611ecd612679565b5b6020026020010151611ee091906125d8565b90508060075f8e8681518110611ef957611ef8612679565b5b602002602001015173ffffffffffffffffffffffffffffffffffffffff1673ffffffffffffffffffffffffffffffffffffffff1681526020019081526020015f205f828254611f48919061254e565b92505081905550818c8481518110611f6357611f62612679565b5b602002602001015173ffffffffffffffffffffffffffffffffffffffff167f5ac5d5ba71740a06e47422ba36537a97e3e64d983cf67cdf1676d83758139ec88d8681518110611fb557611fb4612679565b5b60200260200101518d8781518110611fd057611fcf612679565b5b602002602001015185604051611fe8939291906126a6565b60405180910390a350508080600101915050611e50565b50505050505050505050565b5f33905090565b5f819050919050565b61202481612012565b82525050565b5f60208201905061203d5f83018461201b565b92915050565b5f5ffd5b5f5ffd5b5f73ffffffffffffffffffffffffffffffffffffffff82169050919050565b5f6120748261204b565b9050919050565b6120848161206a565b811461208e575f5ffd5b50565b5f8135905061209f8161207b565b92915050565b5f602082840312156120ba576120b9612043565b5b5f6120c784828501612091565b91505092915050565b5f8115159050919050565b6120e4816120d0565b82525050565b5f6020820190506120fd5f8301846120db565b92915050565b61210c8161206a565b82525050565b5f6020820190506121255f830184612103565b92915050565b612134816120d0565b811461213e575f5ffd5b50565b5f8135905061214f8161212b565b92915050565b5f6020828403121561216a57612169612043565b5b5f61217784828501612141565b91505092915050565b5f5ffd5b5f5ffd5b5f5ffd5b5f5f83601f8401126121a1576121a0612180565b5b8235905067ffffffffffffffff8111156121be576121bd612184565b5b6020830191508360208202830111156121da576121d9612188565b5b9250929050565b5f5f83601f8401126121f6576121f5612180565b5b8235905067ffffffffffffffff81111561221357612212612184565b5b60208301915083602082028301111561222f5761222e612188565b5b9250929050565b5f5f83601f84011261224b5761224a612180565b5b8235905067ffffffffffffffff81111561226857612267612184565b5b60208301915083602082028301111561228457612283612188565b5b9250929050565b5f5f5f5f5f5f5f5f6080898b0312156122a7576122a6612043565b5b5f89013567ffffffffffffffff8111156122c4576122c3612047565b5b6122d08b828c0161218c565b9850985050602089013567ffffffffffffffff8111156122f3576122f2612047565b5b6122ff8b828c016121e1565b9650965050604089013567ffffffffffffffff81111561232257612321612047565b5b61232e8b828c016121e1565b9450945050606089013567ffffffffffffffff81111561235157612350612047565b5b61235d8b828c01612236565b92509250509295985092959890939650565b5f819050919050565b6123818161236f565b811461238b575f5ffd5b50565b5f8135905061239c81612378565b92915050565b5f602082840312156123b7576123b6612043565b5b5f6123c48482850161238e565b91505092915050565b6123d681612012565b81146123e0575f5ffd5b50565b5f813590506123f1816123cd565b92915050565b5f5f5f5f6080858703121561240f5761240e612043565b5b5f61241c87828801612091565b945050602061242d878288016123e3565b935050604061243e878288016123e3565b925050606061244f8782880161238e565b91505092959194509250565b5f5f6040838503121561247157612470612043565b5b5f61247e85828601612091565b925050602061248f85828601612141565b9150509250929050565b5f602082840312156124ae576124ad612043565b5b5f6124bb848285016123e3565b91505092915050565b7f4e487b71000000000000000000000000000000000000000000000000000000005f52601260045260245ffd5b5f6124fb82612012565b915061250683612012565b925082612516576125156124c4565b5b828206905092915050565b7f4e487b71000000000000000000000000000000000000000000000000000000005f52601160045260245ffd5b5f61255882612012565b915061256383612012565b925082820190508082111561257b5761257a612521565b5b92915050565b5f61258b82612012565b915061259683612012565b9250826125a6576125a56124c4565b5b828204905092915050565b5f6040820190506125c45f83018561201b565b6125d1602083018461201b565b9392505050565b5f6125e282612012565b91506125ed83612012565b925082820390508181111561260557612604612521565b5b92915050565b5f81905092915050565b50565b5f6126235f8361260b565b915061262e82612615565b5f82019050919050565b5f61264282612618565b9150819050919050565b7f4e487b71000000000000000000000000000000000000000000000000000000005f52604160045260245ffd5b7f4e487b71000000000000000000000000000000000000000000000000000000005f52603260045260245ffd5b5f6060820190506126b95f83018661201b565b6126c6602083018561201b565b6126d3604083018461201b565b94935050505056fea2646970667358221220ff9e15b557e9b9254585ea34e2a8f099c309e228d445bfefd641eec904e8c14a64736f6c63430008220033",
  "linkReferences": {},
  "deployedLinkReferences": {},
  "immutableReferences": {
    "256": [
      {
        "length": 32,
        "start": 1834
      },
      {
        "length": 32,
        "start": 2074
      },
      {
        "length": 32,
        "start": 2191
      }
    ]
  },
  "inputSourceName": "project/contracts/GhostVault.sol",
  "buildInfoId": "solc-0_8_34-1fdf1a025b7a79cf1b451d6b2832ac0e2a9eefc4"
}